:100000006F00D01D00000000EA030000EC030000B8
:1000100000000000000000000000000000000000E0
:1000200000000000000000000000000000000000D0
:10003000AA09000000000000AC0900000000000058
:10004000AE090000B0090000B2090000B4090000C8
:10005000B6090000B8090000BA090000BC09000098
:10006000BE090000C0090000C2090000C409000068
:10007000C6090000C8090000CA090000CC09000038
:10008000CE090000D0090000D2090000D409000008
:10009000D6090000D8090000DA09000000000000BD
:1000A000511126C022C206C4828282441244A24058
:1000B000310182802A86014593F6150091C232955E
:1000C00085810606F5F9828000000000634E050276
:1000D00063C305042E86AA857D5515C285466378BF
:1000E000B6006356C00006068606E36CB6FE014500
:1000F00063E4C500918D558D85820582F5FA828075
:100100008682C93F2E8582823305A0406347B000B6
:10011000B305B040C1B7B305B0408682653F330533
:10012000A0408282868263C70500634905005D376F
:100130002E858282B305B040E35B05FE3305A04007
:10014000513F3305B04082820000EFF27FF5B715D2
:100150007A0093850520B707002003A507019D3F7E
:100160001375F50FB7070020238DA70093175500CF
:10017000898F8A073E950E05B7070020239CA700AC
:100180002DB7EFF2FFF1AA8537F400E05C40F99B50
:100190005CC0B707002003C5A701293F08C8232476
:1001A00004001C4093E717001CC0B7F700E0DC43D5
:1001B000858BE5DF37F700E01C43F99B1CC3F5B5E1
:1001C000EFF21FEEAA8537F400E05C40F99B5CC0BB
:1001D000B707002003D58701F13D08C82324040098
:1001E0001C4093E717001CC0B7F700E0DC43858B89
:1001F000E5DF37F700E01C43F99B1CC37DB59C4548
:1002000013F6F700C18B99C3DC415D8E83C70500EF
:10021000A1CF03230500014719A05CC905079D472D
:1002200063E2E7048547B397E70083D60500FD8EB8
:10023000E396D7FE93122700BD46B396560093C6A9
:10024000F6FFB3F66600331356003363D3009445CC
:1002500093028002E38356FC93028004E39056FCF1
:100260001CC96DBF2320650003D705009307F00F5D
:1002700063F3E70603234500014701A883A2850035
:10028000930680046385D20405079D4763E3E70472
:10029000930787008546B397F60083D60500FD8E49
:1002A000E394D7FE93122700BD46B396560093C63B
:1002B000F6FFB3F66600331356003363D30083A210
:1002C000850093068002E39BD2FA5CC945BF1CC936
:1002D00065BF2322650082801C45FD8D99C10545BF
:1002E00082800145828019C20CC982804CC98280FB
:1002F000B7070140D043135705019376F700131356
:1003000005011353030137070010698F15C3B707A1
:10031000C0FFF517F18F37070007D98F91C5370751
:1003200000F07D17798DC98F370701405CC382804B
:10033000634C0502B70730003377F5006305F70417
:10034000B7071000E98FADC38D47B397D70093C7A8
:10035000F7FFF18F37070007D98FF9D555811205BF
:100360003315A300C98FC9B7B707E0FFED17F18FA9
:1003700037070007D98FCDD9370700801347F7FF1C
:10038000798DC98F55B7370700F97D17B377E60028
:10039000370601405442758F58C2D9D55581120590
:1003A0003315A300C98F49B7558112053315A30032
:1003B0009347F5FFF18F37070007D98FB5D5C98F60
:1003C000A5B7B707002023AEA700828099C53717CD
:1003D00002401C4F5D8D08CF8280371702401C4FB2
:1003E0001345F5FF7D8D08CF8280828001A0EFF25A
:1003F0003FCB511102C002C202C481452165CD3DEF
:10040000854513050002D93785454145C1378545E6
:1004100011456D3F930700022310F100130480047F
:1004200022C48A8537150140D93B93040004231068
:10043000910022C48A8537150140D1339307000803
:100440002310F10022C48A85371501404D3B23104B
:100450009100414422C48D473EC28A85B7140140B1
:1004600013850440693B130700022310E10022C4F6
:100470008D473EC28A851385044051332310810085
:1004800022C48D473EC28A85138504408D3B89472F
:100490002310F10022C48D473EC28A851385048053
:1004A000B93B91472310F10022C48D473EC28A8593
:1004B00013850480A9333101CDBE914763E1A706BE
:1004C000EFF21FBE2E860A058567938707A83E9523
:1004D0001C41828793050004371501401305054030
:1004E0001935E1B6930500023715014013050540A3
:1004F000DD3BC5BFC1453715014013050540E53358
:10050000CDB789453715014013050580E93BD1BFBB
:1005100091453715014013050580F133D9B7828025
:10052000EFF21FB89305000237150140753319E942
:1005300003A7C18593171700BA97850723A2F186F1
:100540000545A5B69305000437150140713319E937
:1005500003A7C18593171700BA97890723A2F186CD
:100560000545C5B79305000837150140B53319E9AE
:1005700083A7C185850713971700BA9723A2F18631
:100580000545C1B7014575BFEFF29FB1130141FDAC
:100590002A84AE8481452165A13B8567938707A6A0
:1005A00098433AD0D8433AD203D787002314E102C4
:1005B000CC47904BD44B984FDC4F2EC632C836CA2E
:1005C0003ACC3ECE02C002C202C4854513050002E9
:1005D000F53B85454145DD3B8547638AF402894704
:1005E000638FF40481C41301C102C1B493171400D2
:1005F0007810BA9783D747FF2310F10091473EC484
:100600000A043A948A85032504FED53EE9BF931770
:1006100014007810BA9783D447FF23109100C14784
:100620003EC48D473EC20A043A94032404FE8A85E0
:100630002285F1360146A685228575316DB793175F
:1006400014007810BA9783D447FF23109100C14754
:100650003EC48D473EC20A043A94032404FE8A85B0
:100660002285713E0546A6852285B539ADBFEFF2DC
:100670003FA371112AC0014429A081452285293751
:1006800005049147E3DB87FE85450145F53D0144BF
:1006900025A005469145B714014013850440A131BA
:1006A00013052003313E0146914513850440253949
:1006B00013054006313605048247E34CF4FC13056C
:1006C000800CFD3C1101D5B2EFF29F9D0945D53953
:1006D0003124A53C293B014401A885452285F13BF5
:1006E00081452285553505049147E3D887FE0147AA
:1006F00011A89316270093878180B697930630063A
:1007000094C30507CD47E3D6E7FE9387818023A4F2
:10071000070423A6070423A6070223A207049DA01B
:1007200081452285953505049147E3DB87FE8545A4
:1007300003A5C185913D014411A005048D4763C8FF
:10074000870203A5C18593172500A2971397270059
:1007500093878180BA97984383A78185E34FF7FCFD
:100760002295954505057D3A8945393DF9B783A719
:10077000018691C703A54186DD3D23A001861305AF
:10078000400601341387C1851C4385071CC31147EC
:100790006354F70023AE0184138781851C438507CA
:1007A0001CC3130730066354F70023AC0184814552
:1007B00003A5C1851933AD3301C5054723A0E186E3
:1007C000854503A5C185D5390144B9BF611102C270
:1007D00002C0B7170240984F1367170098CFB706AB
:1007E0000140D8422166518FD8C29843C166558FC7
:1007F00098C3B71702409C4337070200F98F3EC0E9
:10080000924785073EC2824789E712478967E3120C
:10081000F7FEB71702409C4337070200F98F89CBD8
:1008200085473EC0024785476306F7002101828065
:1008300002C0CDBFB72702409843719B98C398432D
:100840001367170098C3B7170240D843D8C3D843DB
:10085000C176FD16758FD8C3D843C166558FD8C3EE
:100860009843B7060001558F98C3B71702409C43C1
:1008700037070002F98FF5DBB7170240D843719BA9
:10088000D8C3D84313672700D8C3B7170240DC4347
:10089000B18B2147E39BE7FE51BF0DBFB717024065
:1008A00098431367170098C3D843B706FFFC758FAA
:1008B000D8C39843B706F7FEFD16758F98C39843C3
:1008C000B706FCFFFD16758F98C3D843C176FD1699
:1008D000758FD8C337079F0098C7C1B7B7170240B5
:1008E000DC43B18B11476386E7062147638CE7063B
:1008F00091CB37070020B7376E0193870760232815
:10090000F70009A837070020B7376E019387076003
:100910002328F700B7160240DC42918313F7F70053
:10092000B707002093870700BA9783C5070093F5A0
:10093000F50FDC4293F70708B1EFEFF26FF63704DB
:100940000020130404010840EFF0CFF808C06FF056
:10095000CFF537070020B7376E019387076023284C
:10096000F7004DBFB7170240DC434167F98F91EBA9
:1009700037070020B777DC02938707C02328F700EA
:1009800051BF37070020B777DC02938707C02328C1
:10099000F70049B7B7070020938707019843B3557D
:1009A000B7008CC3828001A001A001A001A001A01A
:1009B00001A001A001A001A001A001A001A001A02F
:1009C00001A001A001A001A001A001A001A001A01F
:1009D00001A001A001A001A001A001A09701002099
:1009E0009381C1E3138181FE170500001305C50A39
:1009F00097F5FF1F9385056117F6FF1F1306066223
:100A000063FAC5008322050023A055001105910556
:100A1000E3EAC5FE17F5FF1F130545609385818640
:100A20006377B500232005001105E36DB5FE930241
:100A30000008739002308D427390428097F2FFFF5E
:100A40009382425C93E2320073905230EFF01FE5E4
:100A500097020000938282C7739012347300203093
:100A6000010001000800080004000000001401401B
:100A7000001001400014014000100140001401402A
:100A8000D4040000E4040000F404000002050000A7
:040A9000100500004D
:100A9400010203040506070801020304050607080A
:080AA400006CDC020000000000
:00000001FF
