:100000006F00D02400000000AC030000AE0300002D
:1000100000000000000000000000000000000000E0
:1000200000000000000000000000000000000000D0
:100030001A0A0000000000001C0A00000000000076
:100040001E0A0000200A0000220A0000240A000004
:10005000260A0000280A00002A0A00002C0A0000D4
:100060002E0A0000300A0000320A0000340A0000A4
:10007000360A0000380A00003A0A00003C0A000074
:100080003E0A0000400A0000420A0000440A000044
:10009000460A0000480A00004A0A0000000000006A
:1000A000511126C022C206C4828282441244A24058
:1000B000310182802A86014593F6150091C232955E
:1000C00085810606F5F9828000000000634E050276
:1000D00063C305042E86AA857D5515C285466378BF
:1000E000B6006356C00006068606E36CB6FE014500
:1000F00063E4C500918D558D85820582F5FA828075
:100100008682C93F2E8582823305A0406347B000B6
:10011000B305B040C1B7B305B0408682653F330533
:10012000A0408282868263C70500634905005D376F
:100130002E858282B305B040E35B05FE3305A04007
:10014000513F3305B04082820000EFF27FF5B715D2
:100150007A0093850520B707002003A507019D3F7E
:100160001375F50FB7070020238DA70093175500CF
:10017000898F8A073E950E05B7070020239CA700AC
:100180002DB7EFF2FFF1AA8537F400E05C40F99B50
:100190005CC0B707002003C5A701293F08C8232476
:1001A00004001C4093E717001CC0B7F700E0DC43D5
:1001B000858BE5DF37F700E01C43F99B1CC3F5B5E1
:1001C0009C4513F6F700C18B99C3DC415D8E83C754
:1001D0000500A1CF03230500014719A05CC905074D
:1001E0009D4763E2E7048547B397E70083D60500A0
:1001F000FD8EE396D7FE93122700BD46B3965600B8
:1002000093C6F6FFB3F66600331356003363D3008C
:10021000944593028002E38356FC93028004E390AA
:1002200056FC1CC96DBF2320650003D7050093074A
:10023000F00F63F3E70603234500014701A883A2FB
:100240008500930680046385D20405079D4763E318
:10025000E704930787008546B397F60083D6050029
:10026000FD8EE394D7FE93122700BD46B396560049
:1002700093C6F6FFB3F66600331356003363D3001C
:1002800083A2850093068002E39BD2FA5CC945BF36
:100290001CC965BF2322650082801C45FD8D99C164
:1002A000054582800145828019C20CC982804CC9F3
:1002B0008280B7070140D043135705019376F700BA
:1002C000131305011353030137070010698F15C37A
:1002D000B707C0FFF517F18F37070007D98F91C512
:1002E000370700F07D17798DC98F370701405CC350
:1002F0008280634C0502B70730003377F500630551
:10030000F704B7071000E98FADC38D47B397D70047
:1003100093C7F7FFF18F37070007D98FF9D55581BC
:1003200012053315A300C98FC9B7B707E0FFED1752
:10033000F18F37070007D98FCDD9370700801347D2
:10034000F7FF798DC98F55B7370700F97D17B37758
:10035000E600370601405442758F58C2D9D5558101
:1003600012053315A300C98F49B7558112053315FE
:10037000A3009347F5FFF18F37070007D98FB5D555
:10038000C98FA5B7B707002023AEA700828099C503
:10039000371702401C4F5D8D08CF8280371702400F
:1003A0001C4F1345F5FF7D8D08CF8280828001A010
:1003B000EFF21FCF511102C002C202C48145216574
:1003C000CD3D854513050002D93785454145C137E7
:1003D000854511456D3F930700022310F10013047A
:1003E000800422C48A8537150140D93B9304000458
:1003F0002310910022C48A8537150140D133930719
:1004000000082310F10022C48A85371501404D3BB6
:1004100023109100414422C48D473EC28A85B714FF
:10042000014013850440693B130700022310E100DB
:1004300022C48D473EC28A85138504405133231060
:10044000810022C48D473EC28A85138504408D3BBE
:1004500089472310F10022C48D473EC28A85138547
:100460000480B93B91472310F10022C48D473EC25E
:100470008A8513850480A933310105B9914763E169
:10048000A706EFF2FFC12E860A058567938707AF9F
:100490003E951C41828793050004371501401305E2
:1004A0000540193519B193050002371501401305B0
:1004B0000540DD3BC5BFC14537150140130505406B
:1004C000E533CDB789453715014013050580E93B74
:1004D000D1BF91453715014013050580F133D9B7D8
:1004E0008280EFF2FFBB2A84131725009387818552
:1004F000BA97844381455937930500023715014067
:10050000693B15E993171400A297850723ACF18680
:100510009317240013878185BA970D4798C38545A3
:100520002285A93F0A04138581852A941C4063858E
:10053000970605459DBE9305000437150140B13B64
:1005400019ED93171400A297890723ACF18693172E
:10055000240013878185BA97094798C3C9B79305C3
:10056000000837150140153B05E1130714009317E8
:100570001700BA9723ACF18693172400138781855F
:10058000BA97054798C361BF9317240013878185E5
:10059000BA9723A0070061B7014569BFEFF25FB0CA
:1005A000130141FD2A84AE84814521651933856795
:1005B000938707AD98433AD0D8433AD203D7870000
:1005C0002314E102CC47904BD44B984FDC4F2EC6FE
:1005D00032C836CA3ACC3ECE02C002C202C48545F9
:1005E000130500026D338545414555338547638AC0
:1005F000F4028947638FF40481C41301C10275B406
:10060000931714007810BA9783D747FF2310F1008F
:1006100091473EC40A043A948A85032504FE4D3668
:10062000E9BF931714007810BA9783D447FF2310BB
:100630009100C1473EC48D473EC20A043A94032448
:1006400004FE8A852285AD3E0146A6852285A9390C
:100650006DB7931714007810BA9783D447FF23100F
:100660009100C1473EC48D473EC20A043A94032418
:1006700004FE8A852285A9360546A68522852D3168
:10068000ADBFEFF2FFA151112A8402C002C202C421
:1006900085454145ED3989472310F100C1473EC4E6
:1006A0008D473EC28A8537150140193E228689450D
:1006B00037150140D53E3101CDBA03A7018815C3D6
:1006C0001307170383A7C1876340F70223A001889C
:1006D00021A89316270093878180B69723A007004F
:1006E0000507CD47E3D7E7FE83A68185854763826B
:1006F000F6029387818598478D476304F7029387B5
:100700008185DC470D476386E7020D47638BE7026F
:100710008280938781803D47D8DBD8DF98D7B8C7E0
:10072000C9BF938781803D47D8DFB8C398CF98D39E
:10073000F9B7138781803D4610D750CF10DF50D3D3
:10074000E9B78547E396F6FC938781801307300667
:1007500098D703A7C18723A0E18805451DB7EFF20D
:100760003F9409450531DD22CD329931014401A87C
:10077000854522852133814522850D350504914724
:10078000E3D887FE014709A8931627009387818045
:10079000B69723A007000507CD47E3D7E7FEA1A83A
:1007A00081452285E53B05049147E3DB87FE8545CE
:1007B00003A50187E533014411A005048D4763C9F2
:1007C000870203A5018793172500A2971397270097
:1007D00093878180BA97984383A7C186E3DFE7FCBC
:1007E000229595450505EFF0FF938945453BF1B707
:1007F000E93505457932138701871C4385071CC3FA
:1008000011476354F70023A801861387C1861C4350
:1008100085071CC3130730066359F70023A601861A
:100820009387C1879843050798C303A50187553966
:1008300001C5054723AAE1860144BDB7611102C283
:1008400002C0B7170240984F1367170098CFB7063A
:100850000140D8422166518FD8C29843C166558F56
:1008600098C3B71702409C4337070200F98F3EC078
:10087000924785073EC2824789E712478967E3129C
:10088000F7FEB71702409C4337070200F98F89CB68
:1008900085473EC0024785476306F70021018280F5
:1008A00002C0CDBFB72702409843719B98C39843BD
:1008B0001367170098C3B7170240D843D8C3D8436B
:1008C000C176FD16758FD8C3D843C166558FD8C37E
:1008D0009843B7060001558F98C3B71702409C4351
:1008E00037070002F98FF5DBB7170240D843719B39
:1008F000D8C3D84313672700D8C3B7170240DC43D7
:10090000B18B2147E39BE7FE51BF0DBFB7170240F4
:1009100098431367170098C3D843B706FFFC758F39
:10092000D8C39843B706F7FEFD16758F98C3984352
:10093000B706FCFFFD16758F98C3D843C176FD1628
:10094000758FD8C337079F0098C7C1B7B717024044
:10095000DC43B18B11476386E7062147638CE706CA
:1009600091CB37070020B7376E01938707602328A4
:10097000F70009A837070020B7376E019387076093
:100980002328F700B7160240DC42918313F7F700E3
:10099000B707002093870700BA9783C5070093F530
:1009A000F50FDC4293F70708B1EFEFF26FEF370472
:1009B0000020130404010840EFF0CFF108C06FF0ED
:1009C000CFEE37070020B7376E01938707602328E3
:1009D000F7004DBFB7170240DC434167F98F91EB39
:1009E00037070020B777DC02938707C02328F7007A
:1009F00051BF37070020B777DC02938707C0232851
:100A0000F70049B7B7070020938707019843B3550C
:100A1000B7008CC3828001A001A001A001A001A0A9
:100A200001A001A001A001A001A001A001A001A0BE
:100A300001A001A001A001A001A001A001A001A0AE
:100A400001A001A001A001A001A001A09701002028
:100A50009381C1DC138181FE170500001305C50ACF
:100A600097F5FF1F9385055A17F6FF1F1306065BC0
:100A700063FAC5008322050023A0550011059105E6
:100A8000E3EAC5FE17F5FF1F130545599385418815
:100A90006377B500232005001105E36DB5FE9302D1
:100AA0000008739002308D427390428097F2FFFFEE
:100AB0009382425593E2320073905230EFF01FE57B
:100AC000970200009382E2C97390123473002030C1
:100AD00001000100080008000400000000140140AB
:100AE00000100140001401400010014000140140BA
:100AF00096040000A6040000B6040000C404000030
:040B0000D20400001B
:100B04000102030405060708010203040506070899
:080B1400006CDC02000000008F
:00000001FF
