:100000006F00B01F00000000EA030000EC030000D6
:1000100000000000000000000000000000000000E0
:1000200000000000000000000000000000000000D0
:10003000C809000000000000CA090000000000001C
:10004000CC090000CE090000D0090000D209000050
:10005000D4090000D6090000D8090000DA09000020
:10006000DC090000DE090000E0090000E2090000F0
:10007000E4090000E6090000E8090000EA090000C0
:10008000EC090000EE090000F0090000F209000090
:10009000F4090000F6090000F80900000000000063
:1000A000511126C022C206C4828282441244A24058
:1000B000310182802A86014593F6150091C232955E
:1000C00085810606F5F9828000000000634E050276
:1000D00063C305042E86AA857D5515C285466378BF
:1000E000B6006356C00006068606E36CB6FE014500
:1000F00063E4C500918D558D85820582F5FA828075
:100100008682C93F2E8582823305A0406347B000B6
:10011000B305B040C1B7B305B0408682653F330533
:10012000A0408282868263C70500634905005D376F
:100130002E858282B305B040E35B05FE3305A04007
:10014000513F3305B04082820000EFF27FF5B715D2
:100150007A0093850520B707002003A507019D3F7E
:100160001375F50FB7070020238DA70093175500CF
:10017000898F8A073E950E05B7070020239CA700AC
:100180002DB7EFF2FFF1AA8537F400E05C40F99B50
:100190005CC0B707002003C5A701293F08C8232476
:1001A00004001C4093E717001CC0B7F700E0DC43D5
:1001B000858BE5DF37F700E01C43F99B1CC3F5B5E1
:1001C000EFF21FEEAA8537F400E05C40F99B5CC0BB
:1001D000B707002003D58701F13D08C82324040098
:1001E0001C4093E717001CC0B7F700E0DC43858B89
:1001F000E5DF37F700E01C43F99B1CC37DB59C4548
:1002000013F6F700C18B99C3DC415D8E83C70500EF
:10021000A1CF03230500014719A05CC905079D472D
:1002200063E2E7048547B397E70083D60500FD8EB8
:10023000E396D7FE93122700BD46B396560093C6A9
:10024000F6FFB3F66600331356003363D3009445CC
:1002500093028002E38356FC93028004E39056FCF1
:100260001CC96DBF2320650003D705009307F00F5D
:1002700063F3E70603234500014701A883A2850035
:10028000930680046385D20405079D4763E3E70472
:10029000930787008546B397F60083D60500FD8E49
:1002A000E394D7FE93122700BD46B396560093C63B
:1002B000F6FFB3F66600331356003363D30083A210
:1002C000850093068002E39BD2FA5CC945BF1CC936
:1002D00065BF2322650082801C45FD8D99C10545BF
:1002E00082800145828019C20CC982804CC98280FB
:1002F000B7070140D043135705019376F700131356
:1003000005011353030137070010698F15C3B707A1
:10031000C0FFF517F18F37070007D98F91C5370751
:1003200000F07D17798DC98F370701405CC382804B
:10033000634C0502B70730003377F5006305F70417
:10034000B7071000E98FADC38D47B397D70093C7A8
:10035000F7FFF18F37070007D98FF9D555811205BF
:100360003315A300C98FC9B7B707E0FFED17F18FA9
:1003700037070007D98FCDD9370700801347F7FF1C
:10038000798DC98F55B7370700F97D17B377E60028
:10039000370601405442758F58C2D9D55581120590
:1003A0003315A300C98F49B7558112053315A30032
:1003B0009347F5FFF18F37070007D98FB5D5C98F60
:1003C000A5B7B707002023AEA700828099C53717CD
:1003D00002401C4F5D8D08CF8280371702401C4FB2
:1003E0001345F5FF7D8D08CF8280828001A0EFF25A
:1003F0003FCB511102C002C202C481452165CD3DEF
:10040000854513050002D93785454145C1378545E6
:1004100011456D3F85472310F1009304800426C4E5
:100420008A853714014013050440D13B91472310BE
:10043000F10026C48A8513050480D133894723102F
:10044000F10026C48A8513050480553B93070004F8
:100450002310F100C14426C48D473EC28A8513058E
:100460000440713B930700022310F10026C48D471E
:100470003EC28A851305044059332310910026C4D7
:100480008D473EC28A8513050440953BA147231042
:10049000F10026C48D473EC28A851305044085338A
:1004A00011472310E10026C48D473EC28A851305FB
:1004B0000440B1333101D5BE914763E1A706EFF2A5
:1004C0003FBE2E860A058567938707AA3E951C4185
:1004D0008287930500043715014013050540213537
:1004E000E9B6930500023715014013050540E53BC9
:1004F000C5BFC1453715014013050540ED33CDB7E4
:10050000A1453715014013050540F13BD1BF914589
:100510003715014013050540F933D9B78280EFF252
:100520003FB885453715014013050540753319E976
:1005300003A7C18593171700BA97850723A2F186F1
:100540000145A5B69145371501401305058069336E
:1005500011E903A7C18593171700BA97890723A24A
:10056000F186F9BF89453715014013050580AD3384
:1005700061F983A7C185850713971700BA9723A24E
:10058000F1867DBFEFF2DFB1130141FD2A84AE8415
:1005900081452165B13B8567938707A898433AD089
:1005A000D8433AD203D787002314E102CC47904BBB
:1005B000D44B984FDC4F2EC632C836CA3ACC3ECE0A
:1005C00002C002C202C485451305000201358545FB
:1005D0004145ED3B85451145D53B8547638AF4028E
:1005E0008947638FF40481C41301C1027DBC931752
:1005F00014007810BA9783D747FF2310F100914772
:100600003EC40A043A948A85032504FECD3EE9BF20
:10061000931714007810BA9783D447FF23109100E2
:10062000C1473EC48D473EC20A043A94032404FEE7
:100630008A852285E9360146A68522856D316DB70A
:10064000931714007810BA9783D447FF23109100B2
:10065000C1473EC48D473EC20A043A94032404FEB7
:100660008A852285693E0546A6852285AD39ADBFBE
:10067000EFF21FA3AA84014429A0814522851937DE
:1006800005049147E3DB87FE85450145E53D0144CF
:1006900031A889450545FD351305400615368545C4
:1006A0000545CD351305800C213E0504E34394FE3A
:1006B0001305800C3136D5BAEFF29F9E71110945B2
:1006C0000933252C59342533014401A88545228559
:1006D000E533814522857D3505049147E3D887FEC2
:1006E000014711A89316270093878180B697930638
:1006F000300694C30507CD47E3D6E7FE02C015A830
:1007000081452285413505049147E3DB87FE854518
:1007100002458D3D89452685B5351305401F4D346D
:100720008504914763C497000144F9BF8247850758
:100730003EC09147024763C6E7068144DDB7814565
:100740002285893505049147E3DB87FE854503A5AE
:10075000C1850D3D014411A005048D4763C8870282
:1007600003A5C18593172500A297139727009387A8
:100770008180BA97984383A78185E34FF7FC229540
:100780009545050545328945F53BF9B783A70186AF
:1007900091C703A54186E93D23A0018613054006C4
:1007A000CD321387C1851C4385071CC31147635491
:1007B000F70023AE0184138781851C4385071CC382
:1007C000130730066354F70023AC0184814503A569
:1007D000C185DD31A93301C5054723A0E1868545E3
:1007E00003A5C185D1390144B9BF611102C202C05C
:1007F000B7170240984F1367170098CFB70601400C
:10080000D8422166518FD8C29843C166558F98C38C
:10081000B71702409C4337070200F98F3EC092474A
:1008200085073EC2824789E712478967E312F7FED0
:10083000B71702409C4337070200F98F89CB8547E1
:100840003EC0024785476306F7002101828002C04F
:10085000CDBFB72702409843719B98C39843136755
:10086000170098C3B7170240D843D8C3D843C176FE
:10087000FD16758FD8C3D843C166558FD8C398432A
:10088000B7060001558F98C3B71702409C4337073E
:100890000002F98FF5DBB7170240D843719BD8C32C
:1008A000D84313672700D8C3B7170240DC43B18B86
:1008B0002147E39BE7FE51BF0DBFB71702409843A6
:1008C0001367170098C3D843B706FFFC758FD8C3CA
:1008D0009843B706F7FEFD16758F98C39843B70681
:1008E000FCFFFD16758F98C3D843C176FD16758F32
:1008F000D8C337079F0098C7C1B7B7170240DC437A
:10090000B18B11476386E7062147638CE70691CBDD
:1009100037070020B7376E01938707602328F70059
:1009200009A837070020B7376E019387076023288F
:10093000F700B7160240DC42918313F7F700B707C0
:10094000002093870700BA9783C5070093F5F50F3A
:10095000DC4293F70708B1EFEFF28FF43704002081
:10096000130404010840EFF0EFF608C06FF0EFF356
:1009700037070020B7376E01938707602328F700F9
:100980004DBFB7170240DC434167F98F91EB370742
:100990000020B777DC02938707C02328F70051BFF8
:1009A00037070020B777DC02938707C02328F700BA
:1009B00049B7B7070020938707019843B355B7009D
:1009C0008CC3828001A001A001A001A001A001A010
:1009D00001A001A001A001A001A001A001A001A00F
:1009E00001A001A001A001A001A001A001A001A0FF
:1009F00001A001A001A001A001A097010020938106
:100A0000E1E1138181FE170500001305E50A97F562
:100A1000FF1F9385255F17F6FF1F1306266063FAF5
:100A2000C5008322050023A0550011059105E3EAC6
:100A3000C5FE17F5FF1F1305655E938581866377F5
:100A4000B500232005001105E36DB5FE93020008F3
:100A5000739002308D427390428097F2FFFF938231
:100A6000625A93E2320073905230EFF01FE5970222
:100A700000009382A2C473901234730020300000EF
:100A80000100010002000800040000000014014001
:100A90000010014000080140001001400008014022
:100AA000D2040000E2040000F2040000000500008F
:040AB0000E0500002F
:100AB40001020304050607080102030405060708EA
:080AC400006CDC0200000000E0
:00000001FF
