:100000006F00D01100000000DA020000DC020000E6
:1000100000000000000000000000000000000000E0
:1000200000000000000000000000000000000000D0
:10003000EA08000000000000EC08000000000000DA
:10004000EE080000F0080000F2080000F4080000CC
:10005000F6080000F8080000FA080000FC0800009C
:10006000FE08000000090000020900000409000069
:1000700006090000080900000A0900000C09000038
:100080000E09000010090000120900001409000008
:1000900016090000180900001A09000000000000FD
:1000A000511126C022C206C4828282441244A24058
:1000B000310182802A86014593F6150091C232955E
:1000C00085810606F5F9828000000000634E050276
:1000D00063C305042E86AA857D5515C285466378BF
:1000E000B6006356C00006068606E36CB6FE014500
:1000F00063E4C500918D558D85820582F5FA828075
:100100008682C93F2E8582823305A0406347B000B6
:10011000B305B040C1B7B305B0408682653F330533
:10012000A0408282868263C70500634905005D376F
:100130002E858282B305B040E35B05FE3305A04007
:10014000513F3305B04082820000EFF27FF5B715D2
:100150007A0093850520B707002003A507019D3F7E
:100160001375F50FB7070020238DA70093175500CF
:10017000898F8A073E950E05B7070020239CA700AC
:100180002DB7EFF2FFF1AA8537F400E05C40F99B50
:100190005CC0B707002003D58701293F08C8232486
:1001A00004001C4093E717001CC0B7F700E0DC43D5
:1001B000858BE5DF37F700E01C43F99B1CC3F5B5E1
:1001C0009C4513F6F700C18B99C3DC415D8E83C754
:1001D0000500A1CF03230500014719A05CC905074D
:1001E0009D4763E2E7048547B397E70083D60500A0
:1001F000FD8EE396D7FE93122700BD46B3965600B8
:1002000093C6F6FFB3F66600331356003363D3008C
:10021000944593028002E38356FC93028004E390AA
:1002200056FC1CC96DBF2320650003D7050093074A
:10023000F00F63F3E70603234500014701A883A2FB
:100240008500930680046385D20405079D4763E318
:10025000E704930787008546B397F60083D6050029
:10026000FD8EE394D7FE93122700BD46B396560049
:1002700093C6F6FFB3F66600331356003363D3001C
:1002800083A2850093068002E39BD2FA5CC945BF36
:100290001CC965BF2322650082801C45FD8D99C164
:1002A000054582800145828019C20CC982804CC9F3
:1002B0008280B707002023AEA700828099C5371738
:1002C00002401C4F5D8D08CF8280371702401C4FC3
:1002D0001345F5FF7D8D08CF8280828001A0EFF26B
:1002E0003FDC511102C002C202C485451305000261
:1002F000F13785454145D93785451145C1379307C4
:1003000000022310F1001304800422C48A853715EB
:1003100001407D35930400042310910022C48A8596
:1003200037150140713D930700082310F10022C4E6
:100330008A8537150140693523109100414422C454
:100340008D473EC28A85B7140140138504408D3D18
:10035000130700022310E10022C48D473EC28A85A4
:1003600013850440B13D2310810022C48D473EC255
:100370008A8513850440A935A1472310F10022C4C2
:100380008D473EC28A85138504401D3D9147231049
:10039000F10022C48D473EC28A85138504400D3585
:1003A000310121B3EFF2DFCF41112AC002C202C4F2
:1003B00002C6054423128100C14426C68D473EC4AF
:1003C0004C003715014013050540DD3B2312810029
:1003D00026C68D473EC44C0037150140D533014633
:1003E000854537150140C935014425A00546854599
:1003F000B714014013850440453D130540065133B1
:10040000014685451385044045351305800C953B11
:1004100005048247E34CF4FC1305800C9D33014630
:100420008545371501404935014685453715014059
:1004300013050540953D41018DB9EFF27FC651117D
:1004400002C002C202C4854513050002853D8545F0
:100450004145AD3585451145953589472310F10056
:100460009304800426C48A85371401401305048050
:10047000813BA1472310F10026C48A85371501402E
:10048000813391472310F10026C48A851305048027
:10049000053B854423109100C1473EC40D473AC235
:1004A0008A8513050440293B014685451305044010
:1004B000E53B23109100C1473EC40D473AC28A85EF
:1004C00037150140F5390546854537150140E93BAB
:1004D0003101E1BE914763E1A706EFF27FBC2E86B2
:1004E0000A0585679387079C3E951C418287930583
:1004F000000437150140130505407D337DB6930593
:1005000000023715014013050540793BC5BFC145C1
:100510003715014013050540413BCDB7A1453715BF
:100520000140130505404933D1BF914537150140BE
:1005300013050540953BD9B78280EFF27FB693054E
:10054000000237150140913B19E903A7C1809317B9
:100550001700BA97850723AAF1800545B9B6930518
:10056000000437150140153B19E903A7C180931713
:100570001700BA97890723AAF1800545C5B79305E7
:10058000000837150140113B19E983A7C180850791
:1005900013971700BA9723AAF1800545C1B7014503
:1005A00075BFEFF2FFAF130141FD2A84AE8485676A
:1005B0009387079A98433AD0D8433AD203D7870013
:1005C0002314E102CC47904BD44B984FDC4F2EC6FE
:1005D00032C836CA3ACC3ECE02C002C202C48545F9
:1005E00013050002E13985454145C9398545114565
:1005F000F1318547638AF4028947638FF40481C42B
:100600001301C1025DB4931714007810BA9783D711
:1006100047FF2310F10091473EC40A043A948A85AB
:10062000032504FE713EE9BF931714007810BA97B2
:1006300083D447FF23109100C1473EC48D473EC27B
:100640000A043A94032404FE8A852285953E0146D5
:10065000A685228591396DB7931714007810BA9743
:1006600083D447FF23109100C1473EC48D473EC24B
:100670000A043A94032404FE8A85228591360546AD
:10068000A68522851531ADBFEFF29FA10945153131
:100690007122653CA931014401A8854522851D3D93
:1006A00081452285FD3D05049147E3D887FE7133DE
:1006B00039A8854503A5C180313D83A7018191C734
:1006C00003A54181C53123A8018029455D3C1387DD
:1006D000C1801C4385071CC311476354F70023A640
:1006E0000180138781801C4385071CC313073006D4
:1006F0006354F70023A40180814503A5C180D93B41
:100700002D3D45D9054723A8E18065B7611102C297
:1007100002C0B7170240984F1367170098CFB7066B
:100720000140D8422166518FD8C29843C166558F87
:1007300098C3B71702409C4337070200F98F3EC0A9
:10074000924785073EC2824789E712478967E312CD
:10075000F7FEB71702409C4337070200F98F89CB99
:1007600085473EC0024785476306F7002101828026
:1007700002C0CDBFB72702409843719B98C39843EE
:100780001367170098C3B7170240D843D8C3D8439C
:10079000C176FD16758FD8C3D843C166558FD8C3AF
:1007A0009843B7060001558F98C3B71702409C4382
:1007B00037070002F98FF5DBB7170240D843719B6A
:1007C000D8C3D84313672700D8C3B7170240DC4308
:1007D000B18B2147E39BE7FE51BF0DBFB717024026
:1007E00098431367170098C3D843B706FFFC758F6B
:1007F000D8C39843B706F7FEFD16758F98C3984384
:10080000B706FCFFFD16758F98C3D843C176FD1659
:10081000758FD8C337079F0098C7C1B7B717024075
:10082000DC43B18B11476386E7062147638CE706FB
:1008300091CB37070020B7376E01938707602328D5
:10084000F70009A837070020B7376E0193870760C4
:100850002328F700B7160240DC42918313F7F70014
:10086000B707002093870700BA9783C5070093F561
:10087000F50FDC4293F70708B1EFEFF27F82370400
:100880000020130404010840EFF0DF8408C06FF07B
:10089000DF8137070020B7376E0193870760232871
:1008A000F7004DBFB7170240DC434167F98F91EB6A
:1008B00037070020B777DC02938707C02328F700AB
:1008C00051BF37070020B777DC02938707C0232882
:1008D000F70049B7B7070020938707019843B3553E
:1008E000B7008CC3828001A001A001A001A001A0DB
:1008F00001A001A001A001A001A001A001A001A0F0
:1009000001A001A001A001A001A001A001A001A0DF
:1009100001A001A001A001A001A001A09701002059
:100920009381C1EF138181FE170500001305C50AED
:1009300097F5FF1F9385056D17F6FF1F1306066ECB
:1009400063FAC5008322050023A055001105910517
:10095000E3EAC5FE17F5FF1F1305456C93858181FA
:100960006377B500232005001105E36DB5FE930202
:100970000008739002308D427390428097F2FFFF1F
:100980009382426893E2320073905230EFF01FE599
:1009900097020000938282CF73901234730020304C
:1009A00001000100020008000400000000140140E2
:1009B0000010014000080140001001400008014003
:1009C000EE040000FE0400000E0500001C050000FF
:0409D0002A050000F4
:1009D40001020304050607080102030405060708CB
:0809E400006CDC0200000000C1
:00000001FF
