:100000006F00900100000000580600005A06000032
:1000100000000000000000000000000000000000E0
:1000200000000000000000000000000000000000D0
:10003000E607000000000000E807000000000000E4
:10004000EA070000EC070000EE070000F0070000E0
:10005000F2070000F4070000F6070000F8070000B0
:10006000FA070000FC070000FE070000000800007F
:10007000020800000408000006080000080800004C
:100080000A0800000C0800000E080000100800001C
:10009000120800001408000016080000000000000C
:1000A000511126C022C206C4828282441244A24058
:1000B000310182802A86014593F6150091C232955E
:1000C00085810606F5F9828000000000634E050276
:1000D00063C305042E86AA857D5515C285466378BF
:1000E000B6006356C00006068606E36CB6FE014500
:1000F00063E4C500918D558D85820582F5FA828075
:100100008682C93F2E8582823305A0406347B000B6
:10011000B305B040C1B7B305B0408682653F330533
:10012000A0408282868263C70500634905005D376F
:100130002E858282B305B040E35B05FE3305A04007
:10014000513F3305B040828200003D432A876373EC
:10015000C3029377F700BDEFADE5937606FF3D8AC6
:10016000BA960CC34CC30CC74CC74107E36BD7FE10
:1001700011E28280B306C3408A0697020000969679
:100180006780A6002307B700A306B7002306B700C1
:10019000A305B7002305B700A304B7002304B700E5
:1001A000A303B7002303B700A302B7002302B700DD
:1001B000A301B7002301B700A300B7002300B700D5
:1001C000828093F5F50F93968500D58D9396050162
:1001D000D58D61B793962700970200009696868288
:1001E000E78086FA9680C1171D8F3E96E374C3F8A8
:1001F000A5B7EFF2FFEAB7157A0093850520B70798
:10020000002003A58702F9351375F50F238DA18012
:1002100093175500898F8A073E950E05239CA18070
:1002200069B5EFF2FFE7AA8537F400E05C40F99B7F
:100230005CC003D58181BD3D08C8232404001C4057
:1002400093E717001CC0B7F700E0DC43858BE5DFC0
:1002500037F700E01C43F99B1CC381BDEFF25FE45C
:1002600011112A8485451165130505024924930758
:1002700000022318F1008D473ECAE1473ECC0C082E
:1002800037150140130505405D2022C023120100EF
:10029000231301002314010023160100A147231595
:1002A000F1008A8537440140130504808524854583
:1002B00013050480B92E7101CDBBEFF27FDE611111
:1002C0002E8432C281443DA093050004374501408D
:1002D00013050580952E6DD9930714003EC0830544
:1002E0000400C205C1813745014013050580812EF8
:1002F000850402449247E3C9F4FC3E85210175B3AD
:10030000AA873707002003250700AA9713870182D1
:1003100063EBE700138701E76369F7003707002005
:100320002320F70082807D5582807D5582809C4508
:1003300013F6F700C18B99C3DC415D8E83C70500BE
:10034000A1CF03230500014719A05CC905079D47FC
:1003500063E2E7048547B397E70083D60500FD8E87
:10036000E396D7FE93122700BD46B396560093C678
:10037000F6FFB3F66600331356003363D30094459B
:1003800093028002E38356FC93028004E39056FCC0
:100390001CC96DBF2320650003D705009307F00F2C
:1003A00063F3E70603234500014701A883A2850004
:1003B000930680046385D20405079D4763E3E70441
:1003C000930787008546B397F60083D60500FD8E18
:1003D000E394D7FE93122700BD46B396560093C60A
:1003E000F6FFB3F66600331356003363D30083A2DF
:1003F000850093068002E39BD2FA5CC945BF1CC905
:1004000065BF23226500828019C20CC982804CC955
:10041000828023AEA1808280EFF29FC82A84B71722
:100420000240DC43B18B11476386E70821476389AB
:10043000E70899C7B7376E01938707601CC131A0E1
:10044000B7376E01938707601CC1B7160240DC42C4
:10045000918313F7F700B707002093878701BA97B6
:1004600083C5070093F5F50FDC4293F70708BDEB52
:1004700008408D3148C0484008C448C4B7170240FE
:10048000DC43AD83FD8B13D737008A07F18B5D8F7B
:10049000937637018D4763F3D7005117B7070020D4
:1004A00093874700BA9783C5070093F5F50F1D3171
:1004B00008C8E5BEB7376E01938707601CC171B7E6
:1004C000B7170240DC434167F98F99E7B777DC0241
:1004D000938707C01CC195BFB777DC02938707C01D
:1004E0001CC1A5B71C40B3D5B7004CC069B799C5AE
:1004F000371702401C4F5D8D08CF828037170240AE
:100500001C4F1345F5FF7D8D08CF8280EFF25FB958
:1005100021112A84AE8483570501C207C18303D702
:100520006500F576FD16F58FD98F2318F500035772
:10053000C5004207418383D6450003D6850083D793
:10054000A500D18ED58FFD769386369F758FD98F76
:100550002316F50083574501C207C18303D7C500A1
:1005600093F7F7CFD98F231AF50048007535B747B1
:100570000140938707806309F406B2470357C4001C
:100580009316070163C40606139517003E950E05E2
:100590008C408A053E953D3E2AC0930540060245A3
:1005A000153E93144500B7070010FD17E98F13950A
:1005B00017003E950E053E950A0582473385A740F4
:1005C0008357C40013970701634C07021205930574
:1005D000400613052503FD3C3D89C98CC204C1803A
:1005E000231494006101D1B4C24749BF1395170089
:1005F0003E950E058C4086053E95E93C2AC071BFAC
:100600000E059305400613052503E9341D89C98CA1
:10061000F1B781CD8357C500C207C1830967D98F60
:10062000C207C1832316F50082808357C500C20725
:10063000C18379777D17F98F2316F500828093F5B2
:10064000F51F2312B500828083570500FD8D99C1E7
:100650000545828001458280828001A0EFF25FA47F
:10066000511102C002C202C4854541454935854742
:100670002310F100C1473EC48D473EC28A8537151D
:1006800001407531310115B4EFF29FA10945513395
:100690008D36716513050520D136B707002083A577
:1006A00087020965130505ABF5220965130505AC3D
:1006B000D52C6D37014439A00546054485453715CD
:1006C0000140993313052003A93E7DD4014601441E
:1006D000F5B7611102C202C0B7170240984F136705
:1006E000170098CFB7060140D8422166518FD8C273
:1006F0009843C166558F98C3B71702409C4337078C
:100700000200F98F3EC0924785073EC2824789E7C3
:1007100012478967E312F7FEB71702409C43370779
:100720000200F98F89CB85473EC0024785476306A3
:10073000F7002101828002C0CDBFB7270240984355
:10074000719B98C398431367170098C3B71702406B
:10075000D843D8C3D843C176FD16758FD8C3D843C4
:10076000C166558FD8C39843B7060001558F98C30B
:10077000B71702409C4337070002F98FF5DBB71724
:100780000240D843719BD8C3D84313672700D8C30E
:10079000B7170240DC43B18B2147E39BE7FE51BF13
:1007A0000DBFB717024098431367170098C3D8438B
:1007B000B706FFFC758FD8C39843B706F7FEFD1642
:1007C000758F98C39843B706FCFFFD16758F98C3C5
:1007D000D843C176FD16758FD8C337079F0098C7D9
:1007E000C1B701A001A001A001A001A001A001A02A
:1007F00001A001A001A001A001A001A001A001A0F1
:1008000001A001A001A001A001A001A001A001A0E0
:1008100001A001A001A001A0970100209381810700
:10082000138101F7171500001305453A97F5FF1FCF
:100830009385457D1386C18063FAC5008322050038
:1008400023A0550011059105E3EAC5FE1385C1807B
:10085000938501826377B500232005001105E36DC0
:10086000B5FE93020008739002308D42739042806F
:1008700097F2FFFF9382027993E232007390523035
:10088000EFF03FF297020000938242E0739012343F
:1008900073002030130181FD22C606C82A842ECAA7
:1008A00032CC36CE3AD03ED217F5FF1F0325857ED7
:1008B00011C51C4D81E72AC0052B02450C45540883
:1008C000228636C2EF009015C240324413018102E5
:1008D0008280411126C206C622C42EC0AA8401C548
:1008E000184D11E31123984C804419E32685ED2916
:1008F00017170000130747206313E402C040035793
:10090000C400218B19C3184829EFA2852685AD2282
:1009100029C97D55B2402244924441018280171773
:1009200000001307671F6314E4008044C9BF171752
:1009300000001307671AE314E4FCC044C9B78247F8
:1009400018C485073EC063580700144C634DD70296
:100950002947638AE50218409306170014C0230054
:10096000B7008247184483C507007D17E9F918C40A
:10097000635207022286A94526851D28FD57E30AF2
:10098000F5F8294541BF228626851D207D57E31AAB
:10099000E5FC41B71C401387170018C02947238086
:1009A000E700C5B7AA8517F5FF1F0325A56E15B784
:1009B000311122C626C406C8AA87AE84328411C566
:1009C000184D01E72AC00D218247171700001307B1
:1009D000A712631BE406C043184C18C40357C40095
:1009E000218B59C3184849C31848084093F6F40F9F
:1009F00093F4F40F198D5848634AE5003E85A285AB
:100A000036C23EC0D924824792462DE518440505DA
:100A10007D1718C418401306170010C02300D70014
:100A200058486309A7000357C400058B01CB294729
:100A30006396E400A2853E85492C0DEDC240324408
:100A40002685A24451018280171700001307C70CA6
:100A50006314E400804749B7171700001307C7075E
:100A6000E31CE4F6C0478DBF3E85A2853EC0292029
:100A700082473DD9FD54D9B7411122C426C206C6CA
:100A800097F4FF1F83A40461AA872E8499C4984C0D
:100A900009E72AC02685892E824717170000130709
:100AA000A705631AE402C0400317C40093160701A8
:100AB00013768700C18235EE13F606010DEEA546CA
:100AC00094C3136707042316E4007D55B240224403
:100AD000924441018280171700001307E703631453
:100AE000E4008044D1B7171700001307E7FEE31DA9
:100AF000E4FAC04455BF918A9DC64C5899C9130762
:100B000044046386E5003E853EC01D2B8247232AB0
:100B100004020357C400232204001377B7FD2316F1
:100B2000E400184818C00357C40013678700231651
:100B3000E400184801EF0357C40093060020137720
:100B400007286305D700A2853E85B1298317C40015
:100B50001397070193F61700418395C25448232445
:100B60000400B306D04014CC14480145A5F2137715
:100B7000070829DF93E707042316F400B9B7937633
:100B80002700014691E2504810C4F9BF03D7C500C1
:100B9000311122C606C826C493768700AA872E8400
:100BA000FDE2D4416347D000B4416344D000014525
:100BB000C9A00323C402E30C03FE85668443758F3A
:100BC00023A007002DCF68480357C400118B19C715
:100BD0005840198D585819C33840198D58540C5025
:100BE00081462A863E853EC002977D578356C400C3
:100BF0008247631DE500904375476361C708370767
:100C0000402005073357C700058B2DCB18482322FA
:100C1000040018C00567F98E99C67D576314E50076
:100C2000984311E368C84C5884C3D1D113074404D6
:100C30006384E5003E852921232A04028DBF0C50E0
:100C40003E85854601463EC002937D578247E31D9F
:100C5000E5F6984335DBF5466305D700D9466314BE
:100C6000D70084C3A9B78357C40093E707042316AA
:100C7000F400C2403244A2445101828093E606044B
:100C80002316D400FDB790491DD284410D8B90C12D
:100C9000918C814611E3D44914C4E35A90F018545E
:100CA0000C503E85A68632C23EC00297824712464D
:100CB000634AA0008357C4007D5593E707042316B9
:100CC000F40045BF2A96898CC9BF9C49B9CF411110
:100CD00022C406C62A8411C51C4D81E72EC02922D4
:100CE000824597170000938727E1639BF5004C40EE
:100CF0008397C50095C722852244B240410179B54A
:100D000097170000938747E16394F5000C44CDB733
:100D100097170000938747DCE39CF5FC4C44C9BF60
:100D2000B240224401454101828001458280511137
:100D300022C206C42A842316B5002317C500232027
:100D4000050023220500232405002322050623286D
:100D50000500232A0500232C0500214681451305A3
:100D6000C505EFF08FBE97070000938727795CD009
:100D7000970700009387877B1CD497070000938711
:100D8000C77F5CD49717000093878782A24000D06A
:100D90001CD812443101828097050000938525F309
:100DA00099A241111386F5FF22C413141600329440
:100DB0000A0432940E042EC09305440726C206C6C8
:100DC000392EAA8401CD824723200500130684060C
:100DD0005CC1310588C48145EFF02FB7B240224491
:100DE00026859244410182801C4DADE3511122C2FF
:100DF00006C497070000938767FA1CD523240504CF
:100E0000232605042328050483A781802A846314EC
:100E1000F50085471CCD22851D2848C02285052860
:100E200008C422852D2048C4484001469145013719
:100E300008440546A545E53D48440946C945C53D24
:100E40008547A2401CCC124431018280828041112E
:100E500022C403A481801C4C26C206C6AA8499E33E
:100E600022855937930784048047D8437D176356FA
:100E70000700984331CF9C43C5BF8316C400B1E639
:100E8000C1778507232204062320040023220400BF
:100E9000232404005CC423280400232A0400232CF8
:100EA0000400214681451305C405EFF00FAA232A4B
:100EB0000402232C04022324040423260404B24045
:100EC000228522449244410182801304840679BF22
:100ED000914526853EC0F13582472A8488C341FD6D
:100EE000B1479CC0E9BF111122CA06CC26C8AA8707
:100EF000AE86130485040147044450407D16635AAE
:100F00000600004075F8E2405244C2443A8571013F
:100F1000828003D5C400854563F3A5020395E400F0
:100F2000FD55630EB5003E85A6853AC632C43EC265
:100F300036C082963247224692478246498F938432
:100F400084066DBFAE878395E5005971A2D4A6D201
:100F500086D63284B68463DC05008397C70023A05D
:100F6000040093F707089DE79307004035A0130698
:100F7000F100619A3EC232C0712502469247E34EAB
:100F800005FC5842BD67F98F7977BA9793B7170078
:100F90009CC0D9BF93070004B6501CC02654965479
:100FA00001456561828003D7C500211122C806CAA8
:100FB00026C6098B2E8401CF930774041CC01CC85D
:100FC00085475CC8D2404244B2446101828034000B
:100FD0005000AA84853F92452AC02685092201ED4A
:100FE0008317C40013F7072071FFF19B93E72700D5
:100FF0002316F400D1B717070000130727DA98D497
:101000000357C40008C008C8136707082316E40084
:10101000124758C8224709CF8315E4002685392591
:1010200001C98357C400F19B93E717002316F4000E
:101030000355C4008247B3E4A7002316940059B7B0
:10104000D1CD83A7C5FF411122C406C61384C5FFB5
:1010500063D307003E942AC03D2D1387C1801C43F3
:10106000024581EB2322040000C32244B240410127
:1010700025A5637DF4001040B306C4006396D70035
:101080009443DC43B29614C05CC0F9BF3E87DC4396
:1010900099C3E37DF4FE14433306D700631F860033
:1010A0001040B29614C33306D700E390C7FC9043B8
:1010B000DC43B29614C35CC34DBF6375C400B14733
:1010C0001CC165B71040B306C4006396D7009443B3
:1010D000DC43B29614C05CC040C341BF8280411162
:1010E00026C293843500F19806C622C4A104314774
:1010F000AA8763F5E404B14463E4B4043E853EC0CA
:10110000592B1386C18014428247368431E0138400
:101110000181184019E73E8581453EC0552E824722
:1011200008C03E85A6853EC065267D57824763146C
:10113000E506314798C33E85852329A0E3DE04FAFE
:10114000314798C30145B240224492444101828014
:101150001840058F634E0702AD4563F6E50018C0E1
:101160003A9404C029A058406392860218C23E8572
:1011700025231305B4009307440061993307F54014
:10118000E303F5FC3A94898F1CC075BFD8C2C5B77C
:10119000A2864040A5BF130435007198E30385FC87
:1011A000B305A4403E853EC025267D578247E31AFD
:1011B000E5FA41B71C46FD171CC663DA0700184E56
:1011C00063C5E700A9476394F5006FF06FFE1C420A
:1011D0002E851387170018C22380B7008280311133
:1011E00022C626C406C8AA872E873284B304D60036
:1011F00063149400014531A8834504003A863E8576
:101200003AC23EC0453FFD56824712470504E311EE
:10121000D5FEC2403244A24451018280130181F7BD
:1012200022C1A6DE9307F10106C32AC032C236C628
:101230002E8493F487FF01C5184D11E375361717F7
:1012400000001307678B6316E40E8247C043035701
:10125000C400218B630107101848630E070EB247C4
:1012600013070002A38CE4001307000323AA040061
:10127000238DE4003ECA124713065002834607003E
:1012800099C26397C60E9247B306F7406300F70210
:1012900002453E86A2853AC836C691377D56630719
:1012A000C520D048B24642473696D0C8834607008C
:1012B000638E061E930617007D5723A0040023A605
:1012C0000400D8C023A40400A381040423AC0404B4
:1012D00083C506001546171500001305E58536C2BF
:1012E000712E924690401387160049E593750601CA
:1012F00089C593050002A381B4049375860089C54E
:101300009305B002A381B40403C506009305A002AF
:10131000630EB506D04436878145254583460700D0
:1013200013031700938606FD6377D50AA5C9D0C4B9
:10133000B5A0170700001307277E6315E400824756
:10134000804731B71707000013070779E311E4F06E
:101350008247C047EDBD0245A285EFF0EFF1E30003
:1013600005F07D559A400A44F654130181088280A5
:10137000050729B7970600009386067C158D8546DC
:101380003395A600498E90C0BA8699B7D246938508
:10139000460094422ECA63C90602D4C4034607001D
:1013A0009306E0026313D606034617009306A002D5
:1013B000631ED602D246090713864600944232CAFB
:1013C00063C40602D4C091A0B306D04013662600C1
:1013D000D4C490C0E1B7131726003297060733062E
:1013E000D70085451A871DBFFD56E9BF050723A213
:1013F0000400814581462545034607001303170075
:10140000130606FD6378C506D5FD834507000D4626
:10141000170500001305C5723AC28D24124711CD7D
:10142000970600009386C671158D93060004B39647
:10143000A60088400507558D88C08345070093079F
:1014400017001946170500001305C56F3EC2238C0F
:10145000B4002D2425C51307000005EB9440524726
:1014600093F606108DC211073ACAD848A2473E9794
:10147000D8C811B51397260036970607B306C700DC
:1014800085451A8795BF2107C5B7024558089706B5
:101490000000938606D52286A68597000000E70007
:1014A00000002AC4A2477D57E391E7FC0357C4001C
:1014B00013770704E31707EAC8486DB502455808D3
:1014C000970600009386E6D12286A685FD24D1BF2B
:1014D000511122C22A842E8523AA018006C4EFE07E
:1014E0003FE2FD576316F50083A7418191C31CC0FD
:1014F000A240124431018280511122C22E84839570
:10150000E50006C49123634905007C48AA977CC87E
:10151000A2401244310182808357C4007D777D1739
:10152000F98F2316F400EDB7368783D6C500311145
:1015300022C626C406C893F60610AA842E84B28753
:1015400091CA8395E50032C0894601463AC211220C
:10155000124782478356C4007D767D16F18E23168E
:10156000D4008315E4003244C2402685A244BA86E2
:101570003E8651013DA8511122C22E848395E5007B
:1015800006C4C128FD570357C400631BF500FD774F
:10159000FD17F98F2316F400A24012443101828016
:1015A0008567D98F2316F40068C8FDB78395E500D9
:1015B0003DA0511122C22A842E85B285368623AAE7
:1015C000018006C4EFE07FCFFD576316F50083A7C7
:1015D000418191C31CC0A24012443101828051114B
:1015E00022C22A842E8523AA018006C45921FD57D0
:1015F0006316F50083A7418191C31CC0A240124429
:1016000031018280511122C22A842E85B28523AAFB
:10161000018006C4AD21FD576316F50083A7418103
:1016200091C31CC0A240124431018280511122C2D8
:101630002A842E8523AA018006C48129FD576316BA
:10164000F50083A7418191C31CC0A240124431011F
:101650008280511122C22A842E85B285368623AA21
:10166000018006C40D29FD576316F50083A741814B
:1016700091C31CC0A24012443101828093F5F50F42
:101680002A966314C5000145828083470500E38DD7
:10169000B7FE0505FDB7828082800111AE8726CA9C
:1016A000B685BA849447984B22CC06CE2A843283DE
:1016B0006353D70036872320E30083C6370481C6EF
:1016C00005072320E30098431377070211C7032778
:1016D000030009072320E300984313869701198B21
:1016E00035C3984383C6370413770702B336D00057
:1016F00051E71386370422851AC43EC22EC0829455
:101700007D576307E50692472243824594430326AB
:1017100003001143998AC84701476397660033075E
:10172000C5406353070001479447904B6354D6006C
:10173000918E369701431386A70163106706014512
:101740000DA80507D44703250300898EE35BD7F86E
:10175000854622851AC83EC63AC432C22EC082943B
:10176000FD56824512462247B2474243E31BD5FC51
:101770007D55F2406244D244056182803386D700B1
:1017800013050003A301A60403C65704138716001C
:101790003E978906A301C704A9BF854622851AC6BC
:1017A0003AC432C22EC08294FD57E303F5FC3243A3
:1017B000224712468245050349B7130141FD22D253
:1017C00006D426D032C203C6850136C42AC0930689
:1017D00080072E8463EEC6009306200693823504AC
:1017E00063EDC6006304061E930680056305D614E8
:1017F000930424042301C40415A89306D6F993F690
:10180000F60FD545E3E6D5FE9705000093858536AE
:101810008A06AE969442AE968286144393042404BC
:101820001386460010C398422301E4040547C1A271
:101830001440084313F60608930545000DC21441F1
:101840000CC363D806001307D002B306D040A3012F
:10185000E404170600001306662FA945A9A013F695
:10186000060414410CC371DEC206C186D9BF0C4008
:10187000144313F30508138546006305030008C3EA
:10188000944239A093F5050408C3FDD983D6060018
:101890001307F0066302E610170600001306062B76
:1018A000A945A3010404584018C463450700084033
:1018B0006D9908C099E2968405CF9684368516CC3A
:1018C00032CA2EC836C6EFE0BF835246B246C24582
:1018D0003295034705003685FD142380E400EFE0D0
:1018E0006FFF3247C2455246E242AA86E378B7FC10
:1018F0002147639EE5001840058B11CB54401848E2
:101900006347D70013070003A38FE4FEFD14B382DF
:101910009240232854002247924602457008A2852F
:10192000AD3B7D576319E50C7D55A250125482548E
:101930001301C1028280A382C504170600001306AA
:10194000E6200C40084313F3050814411105630D0C
:10195000030208C313F7150001C793E505020CC085
:10196000C145A1F218401377F7FD18C01DBF144000
:1019700093E6060214C093068007A302D404170658
:1019800000001306E61D75BF13F3050408C3E30347
:1019900003FCC206C1827DBF170600001306061BAA
:1019A000A14501B7104014434C4813730608138532
:1019B00046006306030008C398420CC301A808C38D
:1019C00013760604984275DA2310B7002328040022
:1019D000968491B7144381451386460010C3844210
:1019E00050402685613919C1058D48C0584018C836
:1019F000A30104040DB7144892450245A247268668
:101A000082977D57E302E5F21840098B15EB724788
:101A10004844E35CE5F03A8509BF92450245A24798
:101A200085463AC832C68297FD56E30FD5EE424747
:101A3000324605075444F2458D8EE340D7FEC1BFC0
:101A4000014713069401FDB7511122C22A842E8545
:101A5000B285368623AA018006C4A120FD576316ED
:101A6000F50083A7418191C31CC0A24012443101FB
:101A700082809307800523AAF1807D558280930799
:101A8000800523AAF1807D5582809307800523AAD3
:101A9000F180014582809307800523AAF1807D555E
:101AA00082809307800523AAF1807D558280000003
:101AB00053797374656D436C6B3A25640D0A0000AD
:101AC0004750494F20546F67676C65205445535405
:101AD0000D000000000000000000000000000000F9
:101AE00000000000000000000000000000000000F6
:101AF00000000000000000000000000000000000E6
:101B000000000000000000000000000000000000D5
:101B100000000000000000000000000000000000C5
:101B200000000000000000000000000000000000B5
:101B300000000000232D302B20000000686C4C00BA
:101B400065666745464700003031323334353637F5
:101B500038394142434445460000000030313233B9
:101B600034353637383961626364656600000000D9
:101B7000AAFCFFFFC0FCFFFF80FCFFFF80FCFFFF13
:101B800080FCFFFF80FCFFFFC0FCFFFF80FCFFFF2D
:101B900080FCFFFF80FCFFFF80FCFFFF34FEFFFFA7
:101BA000FEFCFFFFFEFDFFFF80FCFFFF80FCFFFF50
:101BB00064FEFFFF80FCFFFFFEFCFFFF80FCFFFFD9
:081BC00080FCFFFF06FEFFFFA1
:101BC800B00000200204060804080C1008101820B1
:101BD80010203040204060800102030405060708F9
:101BE8000102030405060708006CDC02000000007F
:101BF800F41A0000141B0000D41A000000000000B2
:101C080000000000000000000000000000000000CC
:101C180000000000000000000000000000000000BC
:101C280000000000000000000000000000000000AC
:101C3800000000000000000000000000000000009C
:101C4800000000000000000000000000000000008C
:0C1C58002C000020000000002C000020E8
:00000001FF
